:020000040800F2
:10000000A03101204D0200085502000857020008E7
:10001000590200085B0200085D02000800000000B1
:10002000000000000000000000000000A501000822
:100030006102000800000000E901000891040008C6
:1000400067020008670200086702000867020008EC
:1000500067020008670200086702000867020008DC
:1000600067020008670200086702000867020008CC
:1000700067020008670200086702000867020008BC
:1000800067020008670200086702000867020008AC
:10009000670200086702000867020008670200089C
:1000A000670200086702000867020008670200088C
:1000B000670200086702000867020008670200087C
:1000C000670200086702000867020008670200086C
:1000D000670200086702000867020008670200085C
:1000E000670200086702000867020008670200084C
:1000F000670200086702000867020008670200083C
:10010000670200086702000867020008670200082B
:10011000670200086702000867020008670200081B
:10012000670200086702000867020008670200080B
:1001300067020008670200086702000867020008FB
:1001400067020008670200086702000867020008EB
:1001500067020008670200086702000867020008DB
:1001600067020008670200086702000867020008CB
:1001700067020008670200086702000867020008BB
:100180006702000867020008DFF80CD000F0A0F852
:10019000004800472D050008A031012040BA7047F3
:1001A000C0BA7047234B19680868B0E8F04F80F375
:1001B00009884FF0000080F31188704700000000AC
:1001C00003480068006880F3088862B600DF00BF5B
:1001D00008ED00E0DFF80C00016841F470010160F7
:1001E000704700BF88ED00E0EFF30980114B1A68FB
:1001F0001EF0100F08BF20ED108A20E9F04F1060AC
:1002000008B54FF0500080F3118800F065FE4FF004
:10021000000080F31188BDE8084019680868B0E85C
:10022000F04F1EF0100F08BFB0EC108A80F3098861
:10023000704700BF38000020EFF311804FF05001ED
:1002400081F31188704780F3118870470648804712
:1002500006480047FEE7FEE7FEE7FEE7FEE7FEE7AB
:10026000FEE7FEE7FEE7FEE7B104000889010008AB
:1002700040EA01039B0703D009E008C9121F08C028
:10028000042AFAD203E011F8013B00F8013B521EA8
:10029000F9D27047D2B201E000F8012B491EFBD21F
:1002A00070470022F6E710B513460A460446194681
:1002B000FFF7F0FF204610BD10B5044604E00B78B0
:1002C00000F8013B03B1491C521EF8D2204610BD74
:1002D000064C074D06E0E06840F0010394E8070093
:1002E00098471034AC42F6D3FFF752FF4C16000883
:1002F0006C1600081CB54FF47040009003208DF878
:1003000005000121082000F05DF86946014800F071
:1003100003F81CBD000C0240F0B5002301240327A4
:100320000D6804FA03F21540954242D1D0F800C09E
:100330005E0007FA06F52CEA050CC0F800C091F83B
:1003400004C0D0F800E00CFA06FC4CEA0E0CC0F831
:1003500000C091F804C0BCF1010F02D0BCF1020F43
:100360001FD1D0F808C02CEA050CC0F808C091F8DD
:1003700005C0D0F808E00CFA06FC4CEA0E0CC0F8F8
:1003800008C0D0F804C02CEA020CC0F804C04268CF
:1003900091F806C00CFA03FC1FFA8CFC42EA0C022E
:1003A0004260C268AA43C260CA79C568B2402A43A3
:1003B000C2605B1C102BB3D3F0BD42694A4042615E
:1003C00070470000044A0029116801D0014300E091
:1003D0008143116070470000303802400CB50020A6
:1003E0002749019000900A6842F480320A604FF475
:1003F000A0630A6802F400320092019A521C019232
:10040000009A12B9019A9A42F3D10A68920334D53C
:10041000012000901A484030026842F08052026089
:100420001848026842F480420260154808300268A9
:100430000260026842F400420260026842F4A05284
:100440000260031F104A1A600A6842F080720A6054
:100450000A689201FCD50D4A40F2056111600168FD
:1004600021F003010160016841F0020101600168AF
:10047000C1F381010229FAD10CBD00900CBD00002E
:10048000003802400070004008544007003C024021
:10049000064910B54FF080500860FFF7CDFE00F020
:1004A000E7FBBDE810400020FFF7CDBE04ED00E003
:1004B000124810B5016841F47001016010480168EC
:1004C00041F0010101600E4A00210832116002680A
:1004D0000C4B1A400260031D0B4A1A60026822F49A
:1004E0008022026006480C300160FFF777FF034965
:1004F0004FF000608039086010BD000088ED00E01A
:1005000000380240FFFFF6FE1030002402E008C869
:10051000121F08C1002AFAD170477047002001E07D
:1005200001C1121F002AFBD1704700001FB5FFF761
:10053000E1FE00240426164D0096CDE90154234621
:10054000822214A11548039400F0D6FE0096CDE94E
:100550000154002382220FA11148039400F0CCFE25
:100560000096CDE90154002382220AA10D4803948C
:1005700000F0C2FE0096CDE901540023822205A1BD
:100580000948039400F0B8FE00F074FCFEE7000098
:100590000000002054494D4500000000AD05000852
:1005A000D5050008FD0500082506000808B500F07F
:1005B00073FF074D4FF400544FF4FA760090214634
:1005C0002846FFF7FAFE3146684600F021FBF6E7C1
:1005D000000C024008B500F05FFF074D4FF40044E7
:1005E0004FF4FA76009021462846FFF7E6FE3146A2
:1005F000684600F00DFBF6E7000C024008B500F07D
:100600004BFF074D4FF480444FF47A76009021461B
:100610002846FFF7D2FE3146684600F0F9FAF6E7C1
:10062000000C024008B500F037FF074D4FF480542E
:100630004FF47A76009021462846FFF7BEFE3146F9
:10064000684600F0E5FAF6E7000C024070B50B4C86
:10065000054620684560E0682168854205D2A06BA8
:10066000BDE87040091D00F05DBA606B091D00F027
:1006700059FA206B854200D2256370BD38000020F6
:1006800010B500F075FA0C4C206880B90B4800F0EA
:100690003BFA0A48143000F037FA0848A0601430DA
:1006A000E06000220C210A2000F062FC2060BDE81E
:1006B000104000F067BA000074000020742D012083
:1006C00070B5124E124C1AE000F0FEFB3068D0B14B
:1006D00000F01EFF00F04CFAF068C568281D00F01D
:1006E000E4F9A068401EA0606068401E606000F0F1
:1006F00049FA286B00F050FA284600F04DFA60687D
:100700000028E1D170BD00F003FFF8E74C2D012077
:100710003800002030B403680D46002B0CD0026C6A
:10072000C1688C18C46041688C4200D3C360C16842
:10073000284630BCFFF79CBD30BC704710B513464F
:10074000026C04468AB1CBB1E068FFF791FDE16825
:10075000206C091AE1602268914202D26168081A8D
:10076000E060A06B401CA06310BD20680028F8D199
:10077000606800F01BFB00206060F2E7A068FFF7F4
:1007800077FD216CA0680844A06061688842E8D3C6
:100790002068A060E5E70000054C00BFFFF790FF70
:1007A0002068012801D900F00FFA00F091F9F5E76F
:1007B000AC2C012070B5002441600B4D00619142CA
:1007C00006D8D11A8269914206D2011DE86807E075
:1007D0009A4203D2994201D3012403E0011DA86883
:1007E00000F0A0F9204670BD7400002030B587B03D
:1007F000254D3EE0069C606910B1201D00F055F9C2
:1008000002A800F089F80246049830B1012830D0DF
:1008100002281FD003282CD128E00598A16903469F
:1008200001442046FFF7C6FF012822D1616A204615
:100830008847E06901281CD1002000900598A16933
:10084000002342181946204600F0DCFE88B9FFF765
:10085000F3FCFEE70598A06128B1811813462046F5
:10086000FFF7A8FF05E0FFF7E7FCFEE7204600F0F2
:1008700093F900231A4604A9286800F09DFB00287C
:10088000B8D107B030BD0000740000202DE9FC4154
:100890000F46054600F018FB01A800F03DF804469D
:1008A000019818B100F034FEBDE8FC81194E37BB49
:1008B000A54224D800F02CFEB0682746C068C46862
:1008C000201D00F0F2F8E069012811D1A0692B4643
:1008D00041193A462046FFF76DFF012808D1002054
:1008E0000346014600902A46204600F08BFE18B1D0
:1008F000616A20468847D7E7FFF79EFCFEE7291B81
:10090000306800F069F900F003FE0028CCD100F057
:100910005BF9C9E77400002070B5054600F0BCFD26
:10092000064E04467068844203D200F009F80120A4
:1009300000E0002028602046746070BD7400002034
:10094000F8B5174D20E0C1680E68C068C468201D66
:1009500000F0ABF8616A20468847E069012813D1AE
:10096000A0693044B04206D924616060211DA868A6
:1009700000F0D8F808E00020034601460090324617
:10098000204600F03FFE38B1A86801680029DAD19E
:10099000E968C5E90210F8BDFFF74EFCFEE700006C
:1009A00074000020074CA068016841B1C0680021B4
:1009B000D0F80000FFF76AFFFFF718FFF3E7012107
:1009C0000020F7E77400002070B5044600F0D0F86E
:1009D00004F124050AE0606A58B1284600F068FD79
:1009E00008B100F0A3F9A06C401EA064A06C002820
:1009F000F1DC4FF0FF36A66400F0C4F800F0B8F860
:100A000004F110050AE0206958B1284600F050FDB5
:100A100008B100F08BF9606C401E6064606C0028C7
:100A2000F1DC6664BDE8704000F0ACB870B5044617
:100A30000025400704D004F00700C0F1080004447A
:100A400000F042FA0D49486818B90D4820F0070037
:100A500048600A680B4B1019984208D2904206D998
:100A60004B6808609D1800F053FD15B103E000F0DD
:100A70004FFD00F039F8284670BD00002C00002022
:100A80008C000020F82B010010B5031F4FF080747C
:100A90001C601B1F1960191F00230B6014390A60AA
:100AA000091FDA1E44380A6010BDD0E901128A60BD
:100AB000D0E90112516001694A68824201D182681D
:100AC0004A60002202610868401E0860086870479A
:100AD0000448D0E90412491C42F10002C0E90412A2
:100AE0007047000000000020FFF7A6FBFEE70000B3
:100AF0000448D0E90212491C42F10002C0E9021286
:100B0000704700000000002000F108014FF0FF32A4
:100B1000C0E90112C160016100210160704700213C
:100B20000161704710B50B685A1C02D000F1080231
:100B300002E0026904E05268546824689C42FAD9D1
:100B400053684B6099608A60516008610168491C74
:100B5000016010BD426853684B6043688B60536806
:100B600099605160416008610168491C01607047EB
:100B700010B5FFF761FB02480168491C016010BD18
:100B80003400002003490868401E086001D1FFF7C7
:100B90005ABB70473400002010B5002802D0FFF780
:100BA0004BFBFEE710BD000006484FF47A71006869
:100BB000B0FBF1F14FF0E020491E416107210161D6
:100BC000704700001800002002494FF08050086074
:100BD0007047000004ED00E070B50D460446FFF7D5
:100BE000C7FF616C0020491C00D16064A16C491CE6
:100BF00000D1A064FFF7C6FFA06B20B9294604F11D
:100C0000240000F0BBF82046BDE87040FFF7DCBED2
:100C100010B50B4602000ED083B100F055F91068F4
:100C20001249C418CB6898420BD9A04214D9C8689D
:100C3000844208D810E0FFF7FFFAFEE7FFF7FCFA5E
:100C4000FEE7A042F3D914600868001DFFF72DFFEE
:100C50002046FFF7FBFC00E0146000F059FC002880
:100C600003D1BDE81040FFF7AFBF10BD3800002032
:100C70002DE9F0412B4CE06958B1206A401C2062FC
:100C8000FFF736FF206A00284AD1BDE8F041FFF7A0
:100C90002FBFE068401CE060E0684FF0FF36A0B96D
:100CA000606B006810B1FFF7C7FAFEE7606BA16BDD
:100CB0006163A063A06A401CA062606B0068A8B179
:100CC000606BC068C06840682063E068216B884240
:100CD000D8D3154F606B006850B1606BC068C568B1
:100CE000E1686868814205D22063CBE72663ECE7C0
:100CF0002663C7E7281DFFF7D8FEA86A18B105F1DB
:100D00001800FFF7D2FEE86A6169884200D9606185
:100D100000EB800007EB8000291DFFF71BFFD9E7E0
:100D2000BDE8F08138000020AC2C012001490120F1
:100D3000486270473800002070B50C4680B10D4DF8
:100D400029681831FFF7EEFE2868001DFFF7ADFE99
:100D5000601C08D0E8682044BDE87040FFF776BC0E
:100D6000FFF76AFAFEE72968BDE870400248091DEE
:100D7000FFF7F0BE38000020602D012070B50D4651
:100D800070B1094C21681831FFF7E4FE2068001D9E
:100D9000FFF78BFEE0682844BDE87040FFF756BCC3
:100DA000FFF74AFAFEE700003800002010B5040003
:100DB0001BD0A16CE06A884217D0201DFFF775FE9A
:100DC000A06CE062C0F105000849A061E06A4A69D0
:100DD000904200D94861064900EB800001EB800099
:100DE000211DBDE81040FFF7B5BE10BD3800002042
:100DF000AC2C012070B5040029D0154DE06A29689B
:100E0000C96A884223D22868124EC06AC0F1050020
:100E1000A061E16A606901EB810106EB8101884212
:100E200012D1201DFFF741FE2868C06AE06269699F
:100E3000884200D9686100EB800006EB8000211D2C
:100E4000BDE87040FFF786BE2868C06AE06270BDEA
:100E500038000020AC2C012010B528B104498A6A62
:100E60000260C968416010BDFFF7E6F9FEE70000C7
:100E7000380000201FB500240094019402942346FA
:100E800082220DA10E48039400F036FA012803D106
:100E900000F096FB012804D000280CD1FFF7CCF914
:100EA000FEE7FFF7C9F9074801218161C460BDE889
:100EB0001F4000F03DB81FBD49444C4500000000F4
:100EC00099070008380000200248C169491CC16127
:100ED0007047000038000020134910B5CA69134854
:100EE00032B10120486210BDD2B14A69521E4A6136
:100EF0004A6902EB820250F82220002A4A69F3D0A4
:100F000002EB820200EB82004268526800F10803A3
:100F100042609A4201D152684260D068086010BDB8
:100F2000FFF78AF9FEE7000038000020AC2C012012
:100F30000C4810B5016841F470010160016841F08E
:100F400070410160FFF730FE074900200860FFF79D
:100F500041F90648016841F040410160FFF730F96E
:100F6000002010BD20ED00E03400002034EF00E050
:100F70002DE9F04117460E46050019D05020FFF725
:100F800055FD040014D005FB06F0401CFFF74EFD94
:100F9000206050B1C4E90F560121204600F09BF8B3
:100FA00084F84D702046BDE8F0812046FFF7F4FD3F
:100FB000FFF742F9FEE700002DE9FF41002582B06E
:100FC00098460E46040002D000271EB107E0FFF746
:100FD00033F9FEE7206C10B1FFF72EF9FEE7FFF7BB
:100FE000C7FDA06B50B331462046E568FFF792FB82
:100FF000B8F1000F10D0E560606A38B104F1240048
:1010000000F056FA10B100BFFFF7DEFDFFF7BAFDA2
:10101000012006B0BDE8F081A06B401EA0632068EF
:1010200010B900F025FA606020690028EED004F1C4
:10103000100000F03DFA0128E6D0E7E7049808B177
:101040001DB106E0FFF79EFD1DE06846FFF704FFB7
:101050000125FFF797FDFFF737FFFFF789FD606C6C
:10106000401C00D16764A06C401C00D1A764FFF74E
:1010700089FD04A9684600F011F930B12046FFF758
:10108000A3FC00F045FA0020C3E7FFF771FDA06B59
:1010900038B1FFF777FD2046FFF796FC00F038FAED
:1010A0009DE7FFF76FFD206830B9FFF761FD6068CD
:1010B000FFF7A0FEFFF766FD04F124000499FFF797
:1010C0003BFE2046FFF780FC00F022FA002886D184
:1010D000FFF77AFD83E770B50D46040023D0FFF7D4
:1010E00047FDD4E90F20216802FB00116160002157
:1010F000A1632168A1600A46D4E90F01401E00FBEC
:1011000001214FF0FF30E1606064A06404F1100041
:1011100065B1FFF7F9FC04F12400FFF7F5FCFFF7D8
:1011200031FD012070BDFFF787F8FEE72169002936
:10113000F5D000F0BDF90128F1D1FFF745FDEEE74C
:101140002DE9FF41002582B098460E46040002D0EA
:1011500000271EB107E0FFF76FF8FEE7206C10B123
:10116000FFF76AF8FEE7FFF703FDA06BE16B88422B
:1011700014D2424631462046FFF7E0FA606A38B1A1
:1011800004F1240000F094F9012801D1FFF71CFDBF
:10119000FFF7F8FC012006B0BDE8F081049808B123
:1011A0001DB106E0FFF7EEFC1DE06846FFF754FEB8
:1011B0000125FFF7E7FCFFF787FEFFF7D9FC606C1E
:1011C000401C00D16764A06C401C00D1A764FFF7ED
:1011D000D9FC04A9684600F061F830B12046FFF759
:1011E000F3FB00F095F90020D5E7FFF7C1FCA06BF9
:1011F000E16B884210D1FFF7C5FC04F1100004999F
:10120000FFF79AFD2046FFF7DFFB00F081F9002889
:10121000A9D1FFF7D9FCA6E7FFF7B4FC2046FFF7FA
:10122000D3FB00F075F99EE72DE9F041984615468D
:101230000E46040001D01EB107E0FEF7FDFFFEE7F9
:10124000206C10B1FEF7F8FFFEE7FEF7F5FF07464A
:10125000A06BE16B88421AD2424631462046FFF726
:101260006DFAA06C401C04D0A06C401CA06401244A
:101270000EE0606A0028FAD004F1240000F018F9AA
:101280000028F4D0002DF2D001202860EFE70024E0
:101290003846FEF7D8FF2046BDE8F08170B50D4610
:1012A00004001CD0F5B1FFF763FC2868411C14D082
:1012B000104922688B6A9A4203D06268CB689A42CE
:1012C00013D96268CB689B1A83420ED2C968891A07
:1012D000401A28602046FFF7BFFD002406E0FEF715
:1012E000ABFFFEE7FEF7A8FFFEE70124FFF74AFC8D
:1012F000204670BD380000202DE9FF5F1546DDE96E
:101300000E68109F8A465FEA000B04D0052E05D3B5
:10131000FEF792FFFEE7FEF78FFFFEE74C20FFF798
:1013200085FB04001CD0A80081469FB1384620638D
:1013300098B1A5224946FEF7ADFF6FF00301206B7F
:1013400001EB8501084420F0070568070BD0FEF784
:1013500073FFFEE7FFF76AFBE9E72046FFF71CFC97
:101360004FF0FF347BE051460A2204F13400FEF7CF
:10137000A3FF002084F83D00E662201DA664FFF76D
:10138000CEFB04F11800FFF7CAFB2461C6F105008B
:101390006462A06159462846039AFFF775FB2060F6
:1013A000B8F1000F01D0C8F80040FFF7E1FB2E4D67
:1013B000A868401CA8602868DFF8B08010B1A86950
:1013C00048B32DE02C60A868012829D15FF0000700
:1013D00007EB870108EB8100FFF796FB7F1C052FC9
:1013E000F6D322486430FFF78FFB20487830FFF7B0
:1013F0008BFB1E488C30FFF787FB1C48A030FFF7A3
:1014000083FB1A48B430FFF77FFB184864306863E9
:101410001430A86304E02868C06AB04200D82C6089
:10142000E06A2969884200D92861E96A491CE962B1
:1014300021646969884200D9686100EB800108EB8A
:101440008100211DFFF786FB0124FFF79BFBA869A4
:1014500028B12868C06AB04201D2FFF7B5FB04B0DA
:101460002046BDE8F09F000038000020AC2C012091
:101470000148006870470000380000200548816975
:1014800019B1C06918B102207047002070470120CF
:10149000704700003800002010B5FFF769FB0348D3
:1014A000C468FFF76FFB204610BD00003800002025
:1014B00070B5C068C46854B104F118000646FFF75F
:1014C000F4FA114DE86928B13146104811E0FEF7F1
:1014D000B3FEFEE7201DFFF7E8FAE06A696988427B
:1014E00000D96861094900EB80008C3901EB80006C
:1014F000211DFFF72FFBE06A2968C96A884201D3E2
:10150000012070BD002070BD38000020382D012062
:101510002DE9F047284C0026E06938B1FFF728FB99
:10152000E069401EE061E06918B140E0FEF784FE2A
:10153000FEE7A06888B3DFF884800027A8F18C0953
:101540001AE0C068C56805F11800FFF7AEFA281D5B
:10155000FFF7ABFAE86A6169884200D9606100EB85
:10156000800109EB8100291DFFF7F4FAE86A216880
:10157000C96A884200D30127D8F8001040460029E4
:10158000DFD1206A28B909E0FFF772FB206A401E0C
:101590002062206A0028F7D104E008E017B9606AE9
:1015A000012804D1002001266062FFF70DFBFFF740
:1015B000E9FA3046BDE8F08738000020382D0120D8
:1015C0001FB5FFF75DF80B48006870B100200221DD
:1015D000CDE900100290034603904FF4827206A1F9
:1015E0000748FFF789FE002802D1FEF725FEFEE737
:1015F00004B010BD74000020546D72205376630057
:10160000A5090008FEB5104C1D46034627680020BA
:10161000089E002F08D08DE80E0035B100232A4621
:1016200069463846FFF700FEFEBDFFF727FF012899
:101630004FF0000305D0002269462068FFF780FDC7
:10164000FEBD3246F8E70000740000206C1600086A
:1016500000000020840000000C050008F0160008BF
:10166000840000201C3101001C050008000000005F
:10167000000000000000000000000000000000006A
:1016800000000000007A030A0000000000000000D3
:101690000102030406070809000000000000000022
:1016A000AAAAAAAA00000000000000000000000092
:1016B000000000000000000000000000000000002A
:1016C000000000000000000000000000000000001A
:1016D00000000000FFFFFFFF00000000000000000E
:1016E00000000000000000000000000000000000FA
:040000050800018965
:00000001FF
